{
  "contractName": "Warranty",
  "abi": [
    {
      "inputs": [],
      "stateMutability": "nonpayable",
      "type": "constructor"
    },
    {
      "anonymous": false,
      "inputs": [
        {
          "indexed": true,
          "internalType": "address",
          "name": "owner",
          "type": "address"
        },
        {
          "indexed": true,
          "internalType": "address",
          "name": "approved",
          "type": "address"
        },
        {
          "indexed": true,
          "internalType": "uint256",
          "name": "tokenId",
          "type": "uint256"
        }
      ],
      "name": "Approval",
      "type": "event"
    },
    {
      "anonymous": false,
      "inputs": [
        {
          "indexed": true,
          "internalType": "address",
          "name": "owner",
          "type": "address"
        },
        {
          "indexed": true,
          "internalType": "address",
          "name": "operator",
          "type": "address"
        },
        {
          "indexed": false,
          "internalType": "bool",
          "name": "approved",
          "type": "bool"
        }
      ],
      "name": "ApprovalForAll",
      "type": "event"
    },
    {
      "anonymous": false,
      "inputs": [
        {
          "indexed": true,
          "internalType": "address",
          "name": "previousOwner",
          "type": "address"
        },
        {
          "indexed": true,
          "internalType": "address",
          "name": "newOwner",
          "type": "address"
        }
      ],
      "name": "OwnershipTransferred",
      "type": "event"
    },
    {
      "anonymous": false,
      "inputs": [
        {
          "indexed": true,
          "internalType": "address",
          "name": "from",
          "type": "address"
        },
        {
          "indexed": true,
          "internalType": "address",
          "name": "to",
          "type": "address"
        },
        {
          "indexed": true,
          "internalType": "uint256",
          "name": "tokenId",
          "type": "uint256"
        }
      ],
      "name": "Transfer",
      "type": "event"
    },
    {
      "inputs": [
        {
          "internalType": "address",
          "name": "to",
          "type": "address"
        },
        {
          "internalType": "uint256",
          "name": "tokenId",
          "type": "uint256"
        }
      ],
      "name": "approve",
      "outputs": [],
      "stateMutability": "nonpayable",
      "type": "function"
    },
    {
      "inputs": [
        {
          "internalType": "address",
          "name": "owner",
          "type": "address"
        }
      ],
      "name": "balanceOf",
      "outputs": [
        {
          "internalType": "uint256",
          "name": "",
          "type": "uint256"
        }
      ],
      "stateMutability": "view",
      "type": "function",
      "constant": true
    },
    {
      "inputs": [
        {
          "internalType": "uint256",
          "name": "tokenId",
          "type": "uint256"
        }
      ],
      "name": "getApproved",
      "outputs": [
        {
          "internalType": "address",
          "name": "",
          "type": "address"
        }
      ],
      "stateMutability": "view",
      "type": "function",
      "constant": true
    },
    {
      "inputs": [
        {
          "internalType": "address",
          "name": "owner",
          "type": "address"
        },
        {
          "internalType": "address",
          "name": "operator",
          "type": "address"
        }
      ],
      "name": "isApprovedForAll",
      "outputs": [
        {
          "internalType": "bool",
          "name": "",
          "type": "bool"
        }
      ],
      "stateMutability": "view",
      "type": "function",
      "constant": true
    },
    {
      "inputs": [],
      "name": "name",
      "outputs": [
        {
          "internalType": "string",
          "name": "",
          "type": "string"
        }
      ],
      "stateMutability": "view",
      "type": "function",
      "constant": true
    },
    {
      "inputs": [
        {
          "internalType": "uint256",
          "name": "",
          "type": "uint256"
        }
      ],
      "name": "nftTokenList",
      "outputs": [
        {
          "internalType": "uint256",
          "name": "",
          "type": "uint256"
        }
      ],
      "stateMutability": "view",
      "type": "function",
      "constant": true
    },
    {
      "inputs": [],
      "name": "owner",
      "outputs": [
        {
          "internalType": "address",
          "name": "",
          "type": "address"
        }
      ],
      "stateMutability": "view",
      "type": "function",
      "constant": true
    },
    {
      "inputs": [
        {
          "internalType": "uint256",
          "name": "tokenId",
          "type": "uint256"
        }
      ],
      "name": "ownerOf",
      "outputs": [
        {
          "internalType": "address",
          "name": "",
          "type": "address"
        }
      ],
      "stateMutability": "view",
      "type": "function",
      "constant": true
    },
    {
      "inputs": [
        {
          "internalType": "uint256",
          "name": "",
          "type": "uint256"
        }
      ],
      "name": "products",
      "outputs": [
        {
          "internalType": "string",
          "name": "name",
          "type": "string"
        },
        {
          "internalType": "uint256",
          "name": "productId",
          "type": "uint256"
        },
        {
          "internalType": "address",
          "name": "owner",
          "type": "address"
        },
        {
          "internalType": "uint32",
          "name": "productCost",
          "type": "uint32"
        },
        {
          "internalType": "uint32",
          "name": "mfgTimeStamp",
          "type": "uint32"
        }
      ],
      "stateMutability": "view",
      "type": "function",
      "constant": true
    },
    {
      "inputs": [],
      "name": "renounceOwnership",
      "outputs": [],
      "stateMutability": "nonpayable",
      "type": "function"
    },
    {
      "inputs": [
        {
          "internalType": "address",
          "name": "operator",
          "type": "address"
        },
        {
          "internalType": "bool",
          "name": "approved",
          "type": "bool"
        }
      ],
      "name": "setApprovalForAll",
      "outputs": [],
      "stateMutability": "nonpayable",
      "type": "function"
    },
    {
      "inputs": [
        {
          "internalType": "bytes4",
          "name": "interfaceId",
          "type": "bytes4"
        }
      ],
      "name": "supportsInterface",
      "outputs": [
        {
          "internalType": "bool",
          "name": "",
          "type": "bool"
        }
      ],
      "stateMutability": "view",
      "type": "function",
      "constant": true
    },
    {
      "inputs": [],
      "name": "symbol",
      "outputs": [
        {
          "internalType": "string",
          "name": "",
          "type": "string"
        }
      ],
      "stateMutability": "view",
      "type": "function",
      "constant": true
    },
    {
      "inputs": [
        {
          "internalType": "uint256",
          "name": "tokenId",
          "type": "uint256"
        }
      ],
      "name": "tokenURI",
      "outputs": [
        {
          "internalType": "string",
          "name": "",
          "type": "string"
        }
      ],
      "stateMutability": "view",
      "type": "function",
      "constant": true
    },
    {
      "inputs": [
        {
          "internalType": "address",
          "name": "newOwner",
          "type": "address"
        }
      ],
      "name": "transferOwnership",
      "outputs": [],
      "stateMutability": "nonpayable",
      "type": "function"
    },
    {
      "inputs": [],
      "name": "mint",
      "outputs": [
        {
          "internalType": "uint256",
          "name": "",
          "type": "uint256"
        }
      ],
      "stateMutability": "nonpayable",
      "type": "function"
    },
    {
      "inputs": [],
      "name": "getTokens",
      "outputs": [
        {
          "internalType": "uint256[]",
          "name": "",
          "type": "uint256[]"
        }
      ],
      "stateMutability": "view",
      "type": "function",
      "constant": true
    },
    {
      "inputs": [
        {
          "internalType": "uint256",
          "name": "_id",
          "type": "uint256"
        }
      ],
      "name": "assignTokenToProduct",
      "outputs": [],
      "stateMutability": "nonpayable",
      "type": "function"
    },
    {
      "inputs": [
        {
          "internalType": "address",
          "name": "from",
          "type": "address"
        },
        {
          "internalType": "address",
          "name": "to",
          "type": "address"
        },
        {
          "internalType": "uint256",
          "name": "tokenId",
          "type": "uint256"
        }
      ],
      "name": "transferFrom",
      "outputs": [],
      "stateMutability": "nonpayable",
      "type": "function"
    },
    {
      "inputs": [
        {
          "internalType": "address",
          "name": "from",
          "type": "address"
        },
        {
          "internalType": "address",
          "name": "to",
          "type": "address"
        },
        {
          "internalType": "uint256",
          "name": "tokenId",
          "type": "uint256"
        }
      ],
      "name": "safeTransferFrom",
      "outputs": [],
      "stateMutability": "nonpayable",
      "type": "function"
    },
    {
      "inputs": [
        {
          "internalType": "address",
          "name": "from",
          "type": "address"
        },
        {
          "internalType": "address",
          "name": "to",
          "type": "address"
        },
        {
          "internalType": "uint256",
          "name": "tokenId",
          "type": "uint256"
        },
        {
          "internalType": "bytes",
          "name": "_data",
          "type": "bytes"
        }
      ],
      "name": "safeTransferFrom",
      "outputs": [],
      "stateMutability": "nonpayable",
      "type": "function"
    },
    {
      "inputs": [],
      "name": "getProducts",
      "outputs": [
        {
          "components": [
            {
              "internalType": "string",
              "name": "name",
              "type": "string"
            },
            {
              "internalType": "uint256",
              "name": "productId",
              "type": "uint256"
            },
            {
              "internalType": "address",
              "name": "owner",
              "type": "address"
            },
            {
              "internalType": "uint32",
              "name": "productCost",
              "type": "uint32"
            },
            {
              "internalType": "uint32",
              "name": "mfgTimeStamp",
              "type": "uint32"
            }
          ],
          "internalType": "struct Warranty.Product[]",
          "name": "",
          "type": "tuple[]"
        }
      ],
      "stateMutability": "view",
      "type": "function",
      "constant": true
    },
    {
      "inputs": [
        {
          "internalType": "uint256",
          "name": "_id",
          "type": "uint256"
        }
      ],
      "name": "getProduct",
      "outputs": [
        {
          "components": [
            {
              "internalType": "string",
              "name": "name",
              "type": "string"
            },
            {
              "internalType": "uint256",
              "name": "productId",
              "type": "uint256"
            },
            {
              "internalType": "address",
              "name": "owner",
              "type": "address"
            },
            {
              "internalType": "uint32",
              "name": "productCost",
              "type": "uint32"
            },
            {
              "internalType": "uint32",
              "name": "mfgTimeStamp",
              "type": "uint32"
            }
          ],
          "internalType": "struct Warranty.Product",
          "name": "",
          "type": "tuple"
        }
      ],
      "stateMutability": "view",
      "type": "function",
      "constant": true
    },
    {
      "inputs": [
        {
          "internalType": "uint256",
          "name": "tokenId",
          "type": "uint256"
        },
        {
          "internalType": "string",
          "name": "tokenURI",
          "type": "string"
        }
      ],
      "name": "addData",
      "outputs": [
        {
          "internalType": "uint256",
          "name": "",
          "type": "uint256"
        }
      ],
      "stateMutability": "nonpayable",
      "type": "function"
    },
    {
      "inputs": [
        {
          "internalType": "string",
          "name": "name",
          "type": "string"
        },
        {
          "internalType": "uint256",
          "name": "productId",
          "type": "uint256"
        },
        {
          "internalType": "uint32",
          "name": "productCost",
          "type": "uint32"
        },
        {
          "internalType": "uint32",
          "name": "mfgTimeStamp",
          "type": "uint32"
        }
      ],
      "name": "addProduct",
      "outputs": [],
      "stateMutability": "nonpayable",
      "type": "function"
    }
  ],
  "bytecode": "0x60806040526103e8600a556000600b553480156200001c57600080fd5b506040518060400160405280600581526020017f546f6b656e0000000000000000000000000000000000000000000000000000008152506040518060400160405280600581526020017f544f4b454e00000000000000000000000000000000000000000000000000000081525081600090816200009a91906200041d565b508060019081620000ac91906200041d565b505050620000cf620000c3620000d560201b60201c565b620000dd60201b60201c565b62000504565b600033905090565b6000600760009054906101000a900473ffffffffffffffffffffffffffffffffffffffff16905081600760006101000a81548173ffffffffffffffffffffffffffffffffffffffff021916908373ffffffffffffffffffffffffffffffffffffffff1602179055508173ffffffffffffffffffffffffffffffffffffffff168173ffffffffffffffffffffffffffffffffffffffff167f8be0079c531659141344cd1fd0a4f28419497f9722a3daafe3b4186f6b6457e060405160405180910390a35050565b600081519050919050565b7f4e487b7100000000000000000000000000000000000000000000000000000000600052604160045260246000fd5b7f4e487b7100000000000000000000000000000000000000000000000000000000600052602260045260246000fd5b600060028204905060018216806200022557607f821691505b6020821081036200023b576200023a620001dd565b5b50919050565b60008190508160005260206000209050919050565b60006020601f8301049050919050565b600082821b905092915050565b600060088302620002a57fffffffffffffffffffffffffffffffffffffffffffffffffffffffffffffffff8262000266565b620002b1868362000266565b95508019841693508086168417925050509392505050565b6000819050919050565b6000819050919050565b6000620002fe620002f8620002f284620002c9565b620002d3565b620002c9565b9050919050565b6000819050919050565b6200031a83620002dd565b62000332620003298262000305565b84845462000273565b825550505050565b600090565b620003496200033a565b620003568184846200030f565b505050565b5b818110156200037e57620003726000826200033f565b6001810190506200035c565b5050565b601f821115620003cd57620003978162000241565b620003a28462000256565b81016020851015620003b2578190505b620003ca620003c18562000256565b8301826200035b565b50505b505050565b600082821c905092915050565b6000620003f260001984600802620003d2565b1980831691505092915050565b60006200040d8383620003df565b9150826002028217905092915050565b6200042882620001a3565b67ffffffffffffffff811115620004445762000443620001ae565b5b6200045082546200020c565b6200045d82828562000382565b600060209050601f83116001811462000495576000841562000480578287015190505b6200048c8582620003ff565b865550620004fc565b601f198416620004a58662000241565b60005b82811015620004cf57848901518255600182019150602085019450602081019050620004a8565b86831015620004ef5784890151620004eb601f891682620003df565b8355505b6001600288020188555050505b505050505050565b613e8f80620005146000396000f3fe608060405234801561001057600080fd5b50600436106101735760003560e01c806370a08231116100de578063aa6ca80811610097578063c29b2f2011610071578063c29b2f2014610460578063c87b56dd1461047e578063e985e9c5146104ae578063f2fde38b146104de57610173565b8063aa6ca808146103f6578063b88d4fde14610414578063b9db15b41461043057610173565b806370a0823114610330578063715018a6146103605780637acc0b201461036a5780638da5cb5b1461039e57806395d89b41146103bc578063a22cb465146103da57610173565b806323b872dd1161013057806323b872dd1461026057806325b228d31461027c578063424133151461029857806342842e0e146102c8578063595f2d12146102e45780636352211e1461030057610173565b806301ffc9a71461017857806306fdde03146101a8578063081812fc146101c6578063095ea7b3146101f65780630dd1abf2146102125780631249c58b14610242575b600080fd5b610192600480360381019061018d91906126ec565b6104fa565b60405161019f9190612734565b60405180910390f35b6101b06105dc565b6040516101bd91906127df565b60405180910390f35b6101e060048036038101906101db9190612837565b61066e565b6040516101ed91906128a5565b60405180910390f35b610210600480360381019061020b91906128ec565b6106b4565b005b61022c60048036038101906102279190612837565b6107cb565b604051610239919061293b565b60405180910390f35b61024a6107ef565b604051610257919061293b565b60405180910390f35b61027a60048036038101906102759190612956565b610843565b005b61029660048036038101906102919190612837565b610913565b005b6102b260048036038101906102ad9190612ade565b6109f7565b6040516102bf919061293b565b60405180910390f35b6102e260048036038101906102dd9190612956565b610a0c565b005b6102fe60048036038101906102f99190612b76565b610a2c565b005b61031a60048036038101906103159190612837565b610b5d565b60405161032791906128a5565b60405180910390f35b61034a60048036038101906103459190612bf9565b610be3565b604051610357919061293b565b60405180910390f35b610368610c9a565b005b610384600480360381019061037f9190612837565b610cae565b604051610395959493929190612c35565b60405180910390f35b6103a6610dbc565b6040516103b391906128a5565b60405180910390f35b6103c4610de6565b6040516103d191906127df565b60405180910390f35b6103f460048036038101906103ef9190612cbb565b610e78565b005b6103fe610e8e565b60405161040b9190612db9565b60405180910390f35b61042e60048036038101906104299190612e7c565b610ee6565b005b61044a60048036038101906104459190612837565b610fb8565b6040516104579190612fdd565b60405180910390f35b61046861113e565b6040516104759190613137565b60405180910390f35b61049860048036038101906104939190612837565b6112db565b6040516104a591906127df565b60405180910390f35b6104c860048036038101906104c39190613159565b6113ed565b6040516104d59190612734565b60405180910390f35b6104f860048036038101906104f39190612bf9565b611481565b005b60007f80ac58cd000000000000000000000000000000000000000000000000000000007bffffffffffffffffffffffffffffffffffffffffffffffffffffffff1916827bffffffffffffffffffffffffffffffffffffffffffffffffffffffff191614806105c557507f5b5e139f000000000000000000000000000000000000000000000000000000007bffffffffffffffffffffffffffffffffffffffffffffffffffffffff1916827bffffffffffffffffffffffffffffffffffffffffffffffffffffffff1916145b806105d557506105d482611504565b5b9050919050565b6060600080546105eb906131c8565b80601f0160208091040260200160405190810160405280929190818152602001828054610617906131c8565b80156106645780601f1061063957610100808354040283529160200191610664565b820191906000526020600020905b81548152906001019060200180831161064757829003601f168201915b5050505050905090565b60006106798261156e565b6004600083815260200190815260200160002060009054906101000a900473ffffffffffffffffffffffffffffffffffffffff169050919050565b60006106bf82610b5d565b90508073ffffffffffffffffffffffffffffffffffffffff168373ffffffffffffffffffffffffffffffffffffffff160361072f576040517f08c379a00000000000000000000000000000000000000000000000000000000081526004016107269061326b565b60405180910390fd5b8073ffffffffffffffffffffffffffffffffffffffff1661074e6115b9565b73ffffffffffffffffffffffffffffffffffffffff16148061077d575061077c816107776115b9565b6113ed565b5b6107bc576040517f08c379a00000000000000000000000000000000000000000000000000000000081526004016107b3906132fd565b60405180910390fd5b6107c683836115c1565b505050565b600881815481106107db57600080fd5b906000526020600020016000915090505481565b60006107fb600961167a565b60006108076009611690565b9050610813338261169e565b60088190806001815401808255809150506001900390600052602060002001600090919091909150558091505090565b61085461084e6115b9565b826118bb565b610893576040517f08c379a000000000000000000000000000000000000000000000000000000000815260040161088a9061338f565b60405180910390fd5b81600c6001836108a391906133de565b815481106108b4576108b3613412565b5b906000526020600020906003020160020160006101000a81548173ffffffffffffffffffffffffffffffffffffffff021916908373ffffffffffffffffffffffffffffffffffffffff16021790555061090e838383611950565b505050565b6000600b549050600a5481111561095f576040517f08c379a00000000000000000000000000000000000000000000000000000000081526004016109569061348d565b60405180910390fd5b33600c60018461096f91906133de565b815481106109805761097f613412565b5b906000526020600020906003020160020160006101000a81548173ffffffffffffffffffffffffffffffffffffffff021916908373ffffffffffffffffffffffffffffffffffffffff1602179055506001600b60008282546109e291906134ad565b925050819055506109f33383611c49565b5050565b6000610a038383611c67565b82905092915050565b610a2783838360405180602001604052806000815250610ee6565b505050565b600c6040518060a001604052808681526020018581526020013373ffffffffffffffffffffffffffffffffffffffff1681526020018463ffffffff1681526020018363ffffffff1681525090806001815401808255809150506001900390600052602060002090600302016000909190919091506000820151816000019081610ab5919061368d565b506020820151816001015560408201518160020160006101000a81548173ffffffffffffffffffffffffffffffffffffffff021916908373ffffffffffffffffffffffffffffffffffffffff16021790555060608201518160020160146101000a81548163ffffffff021916908363ffffffff16021790555060808201518160020160186101000a81548163ffffffff021916908363ffffffff160217905550505050505050565b600080610b6983611cd4565b9050600073ffffffffffffffffffffffffffffffffffffffff168173ffffffffffffffffffffffffffffffffffffffff1603610bda576040517f08c379a0000000000000000000000000000000000000000000000000000000008152600401610bd1906137ab565b60405180910390fd5b80915050919050565b60008073ffffffffffffffffffffffffffffffffffffffff168273ffffffffffffffffffffffffffffffffffffffff1603610c53576040517f08c379a0000000000000000000000000000000000000000000000000000000008152600401610c4a9061383d565b60405180910390fd5b600360008373ffffffffffffffffffffffffffffffffffffffff1673ffffffffffffffffffffffffffffffffffffffff168152602001908152602001600020549050919050565b610ca2611d11565b610cac6000611d8f565b565b600c8181548110610cbe57600080fd5b9060005260206000209060030201600091509050806000018054610ce1906131c8565b80601f0160208091040260200160405190810160405280929190818152602001828054610d0d906131c8565b8015610d5a5780601f10610d2f57610100808354040283529160200191610d5a565b820191906000526020600020905b815481529060010190602001808311610d3d57829003601f168201915b5050505050908060010154908060020160009054906101000a900473ffffffffffffffffffffffffffffffffffffffff16908060020160149054906101000a900463ffffffff16908060020160189054906101000a900463ffffffff16905085565b6000600760009054906101000a900473ffffffffffffffffffffffffffffffffffffffff16905090565b606060018054610df5906131c8565b80601f0160208091040260200160405190810160405280929190818152602001828054610e21906131c8565b8015610e6e5780601f10610e4357610100808354040283529160200191610e6e565b820191906000526020600020905b815481529060010190602001808311610e5157829003601f168201915b5050505050905090565b610e8a610e836115b9565b8383611e55565b5050565b60606008805480602002602001604051908101604052809291908181526020018280548015610edc57602002820191906000526020600020905b815481526020019060010190808311610ec8575b5050505050905090565b610ef7610ef16115b9565b836118bb565b610f36576040517f08c379a0000000000000000000000000000000000000000000000000000000008152600401610f2d9061338f565b60405180910390fd5b82600c600184610f4691906133de565b81548110610f5757610f56613412565b5b906000526020600020906003020160020160006101000a81548173ffffffffffffffffffffffffffffffffffffffff021916908373ffffffffffffffffffffffffffffffffffffffff160217905550610fb284848484611fc1565b50505050565b610fc061262f565b600c600183610fcf91906133de565b81548110610fe057610fdf613412565b5b90600052602060002090600302016040518060a0016040529081600082018054611009906131c8565b80601f0160208091040260200160405190810160405280929190818152602001828054611035906131c8565b80156110825780601f1061105757610100808354040283529160200191611082565b820191906000526020600020905b81548152906001019060200180831161106557829003601f168201915b50505050508152602001600182015481526020016002820160009054906101000a900473ffffffffffffffffffffffffffffffffffffffff1673ffffffffffffffffffffffffffffffffffffffff1673ffffffffffffffffffffffffffffffffffffffff1681526020016002820160149054906101000a900463ffffffff1663ffffffff1663ffffffff1681526020016002820160189054906101000a900463ffffffff1663ffffffff1663ffffffff16815250509050919050565b6060600c805480602002602001604051908101604052809291908181526020016000905b828210156112d257838290600052602060002090600302016040518060a0016040529081600082018054611195906131c8565b80601f01602080910402602001604051908101604052809291908181526020018280546111c1906131c8565b801561120e5780601f106111e35761010080835404028352916020019161120e565b820191906000526020600020905b8154815290600101906020018083116111f157829003601f168201915b50505050508152602001600182015481526020016002820160009054906101000a900473ffffffffffffffffffffffffffffffffffffffff1673ffffffffffffffffffffffffffffffffffffffff1673ffffffffffffffffffffffffffffffffffffffff1681526020016002820160149054906101000a900463ffffffff1663ffffffff1663ffffffff1681526020016002820160189054906101000a900463ffffffff1663ffffffff1663ffffffff168152505081526020019060010190611162565b50505050905090565b60606112e68261156e565b6000600660008481526020019081526020016000208054611306906131c8565b80601f0160208091040260200160405190810160405280929190818152602001828054611332906131c8565b801561137f5780601f106113545761010080835404028352916020019161137f565b820191906000526020600020905b81548152906001019060200180831161136257829003601f168201915b50505050509050600061139061201d565b905060008151036113a55781925050506113e8565b6000825111156113da5780826040516020016113c2929190613899565b604051602081830303815290604052925050506113e8565b6113e384612034565b925050505b919050565b6000600560008473ffffffffffffffffffffffffffffffffffffffff1673ffffffffffffffffffffffffffffffffffffffff16815260200190815260200160002060008373ffffffffffffffffffffffffffffffffffffffff1673ffffffffffffffffffffffffffffffffffffffff16815260200190815260200160002060009054906101000a900460ff16905092915050565b611489611d11565b600073ffffffffffffffffffffffffffffffffffffffff168173ffffffffffffffffffffffffffffffffffffffff16036114f8576040517f08c379a00000000000000000000000000000000000000000000000000000000081526004016114ef9061392f565b60405180910390fd5b61150181611d8f565b50565b60007f01ffc9a7000000000000000000000000000000000000000000000000000000007bffffffffffffffffffffffffffffffffffffffffffffffffffffffff1916827bffffffffffffffffffffffffffffffffffffffffffffffffffffffff1916149050919050565b6115778161209c565b6115b6576040517f08c379a00000000000000000000000000000000000000000000000000000000081526004016115ad906137ab565b60405180910390fd5b50565b600033905090565b816004600083815260200190815260200160002060006101000a81548173ffffffffffffffffffffffffffffffffffffffff021916908373ffffffffffffffffffffffffffffffffffffffff160217905550808273ffffffffffffffffffffffffffffffffffffffff1661163483610b5d565b73ffffffffffffffffffffffffffffffffffffffff167f8c5be1e5ebec7d5bd14f71427d1e84f3dd0314c0f7b2291e5b200ac8c7c3b92560405160405180910390a45050565b6001816000016000828254019250508190555050565b600081600001549050919050565b600073ffffffffffffffffffffffffffffffffffffffff168273ffffffffffffffffffffffffffffffffffffffff160361170d576040517f08c379a00000000000000000000000000000000000000000000000000000000081526004016117049061399b565b60405180910390fd5b6117168161209c565b15611756576040517f08c379a000000000000000000000000000000000000000000000000000000000815260040161174d90613a07565b60405180910390fd5b6117646000838360016120dd565b61176d8161209c565b156117ad576040517f08c379a00000000000000000000000000000000000000000000000000000000081526004016117a490613a07565b60405180910390fd5b6001600360008473ffffffffffffffffffffffffffffffffffffffff1673ffffffffffffffffffffffffffffffffffffffff16815260200190815260200160002060008282540192505081905550816002600083815260200190815260200160002060006101000a81548173ffffffffffffffffffffffffffffffffffffffff021916908373ffffffffffffffffffffffffffffffffffffffff160217905550808273ffffffffffffffffffffffffffffffffffffffff16600073ffffffffffffffffffffffffffffffffffffffff167fddf252ad1be2c89b69c2b068fc378daa952ba7f163c4a11628f55a4df523b3ef60405160405180910390a46118b7600083836001612203565b5050565b6000806118c783610b5d565b90508073ffffffffffffffffffffffffffffffffffffffff168473ffffffffffffffffffffffffffffffffffffffff161480611909575061190881856113ed565b5b8061194757508373ffffffffffffffffffffffffffffffffffffffff1661192f8461066e565b73ffffffffffffffffffffffffffffffffffffffff16145b91505092915050565b8273ffffffffffffffffffffffffffffffffffffffff1661197082610b5d565b73ffffffffffffffffffffffffffffffffffffffff16146119c6576040517f08c379a00000000000000000000000000000000000000000000000000000000081526004016119bd90613a99565b60405180910390fd5b600073ffffffffffffffffffffffffffffffffffffffff168273ffffffffffffffffffffffffffffffffffffffff1603611a35576040517f08c379a0000000000000000000000000000000000000000000000000000000008152600401611a2c90613b2b565b60405180910390fd5b611a4283838360016120dd565b8273ffffffffffffffffffffffffffffffffffffffff16611a6282610b5d565b73ffffffffffffffffffffffffffffffffffffffff1614611ab8576040517f08c379a0000000000000000000000000000000000000000000000000000000008152600401611aaf90613a99565b60405180910390fd5b6004600082815260200190815260200160002060006101000a81549073ffffffffffffffffffffffffffffffffffffffff02191690556001600360008573ffffffffffffffffffffffffffffffffffffffff1673ffffffffffffffffffffffffffffffffffffffff168152602001908152602001600020600082825403925050819055506001600360008473ffffffffffffffffffffffffffffffffffffffff1673ffffffffffffffffffffffffffffffffffffffff16815260200190815260200160002060008282540192505081905550816002600083815260200190815260200160002060006101000a81548173ffffffffffffffffffffffffffffffffffffffff021916908373ffffffffffffffffffffffffffffffffffffffff160217905550808273ffffffffffffffffffffffffffffffffffffffff168473ffffffffffffffffffffffffffffffffffffffff167fddf252ad1be2c89b69c2b068fc378daa952ba7f163c4a11628f55a4df523b3ef60405160405180910390a4611c448383836001612203565b505050565b611c63828260405180602001604052806000815250612209565b5050565b611c708261209c565b611caf576040517f08c379a0000000000000000000000000000000000000000000000000000000008152600401611ca690613bbd565b60405180910390fd5b80600660008481526020019081526020016000209081611ccf919061368d565b505050565b60006002600083815260200190815260200160002060009054906101000a900473ffffffffffffffffffffffffffffffffffffffff169050919050565b611d196115b9565b73ffffffffffffffffffffffffffffffffffffffff16611d37610dbc565b73ffffffffffffffffffffffffffffffffffffffff1614611d8d576040517f08c379a0000000000000000000000000000000000000000000000000000000008152600401611d8490613c29565b60405180910390fd5b565b6000600760009054906101000a900473ffffffffffffffffffffffffffffffffffffffff16905081600760006101000a81548173ffffffffffffffffffffffffffffffffffffffff021916908373ffffffffffffffffffffffffffffffffffffffff1602179055508173ffffffffffffffffffffffffffffffffffffffff168173ffffffffffffffffffffffffffffffffffffffff167f8be0079c531659141344cd1fd0a4f28419497f9722a3daafe3b4186f6b6457e060405160405180910390a35050565b8173ffffffffffffffffffffffffffffffffffffffff168373ffffffffffffffffffffffffffffffffffffffff1603611ec3576040517f08c379a0000000000000000000000000000000000000000000000000000000008152600401611eba90613c95565b60405180910390fd5b80600560008573ffffffffffffffffffffffffffffffffffffffff1673ffffffffffffffffffffffffffffffffffffffff16815260200190815260200160002060008473ffffffffffffffffffffffffffffffffffffffff1673ffffffffffffffffffffffffffffffffffffffff16815260200190815260200160002060006101000a81548160ff0219169083151502179055508173ffffffffffffffffffffffffffffffffffffffff168373ffffffffffffffffffffffffffffffffffffffff167f17307eab39ab6107e8899845ad3d59bd9653f200f220920489ca2b5937696c3183604051611fb49190612734565b60405180910390a3505050565b611fcc848484611950565b611fd884848484612264565b612017576040517f08c379a000000000000000000000000000000000000000000000000000000000815260040161200e90613d27565b60405180910390fd5b50505050565b606060405180602001604052806000815250905090565b606061203f8261156e565b600061204961201d565b905060008151116120695760405180602001604052806000815250612094565b80612073846123eb565b604051602001612084929190613899565b6040516020818303038152906040525b915050919050565b60008073ffffffffffffffffffffffffffffffffffffffff166120be83611cd4565b73ffffffffffffffffffffffffffffffffffffffff1614159050919050565b60018111156121fd57600073ffffffffffffffffffffffffffffffffffffffff168473ffffffffffffffffffffffffffffffffffffffff16146121715780600360008673ffffffffffffffffffffffffffffffffffffffff1673ffffffffffffffffffffffffffffffffffffffff168152602001908152602001600020600082825461216991906133de565b925050819055505b600073ffffffffffffffffffffffffffffffffffffffff168373ffffffffffffffffffffffffffffffffffffffff16146121fc5780600360008573ffffffffffffffffffffffffffffffffffffffff1673ffffffffffffffffffffffffffffffffffffffff16815260200190815260200160002060008282546121f491906134ad565b925050819055505b5b50505050565b50505050565b612213838361169e565b6122206000848484612264565b61225f576040517f08c379a000000000000000000000000000000000000000000000000000000000815260040161225690613d27565b60405180910390fd5b505050565b60006122858473ffffffffffffffffffffffffffffffffffffffff166124b9565b156123de578373ffffffffffffffffffffffffffffffffffffffff1663150b7a026122ae6115b9565b8786866040518563ffffffff1660e01b81526004016122d09493929190613d9c565b6020604051808303816000875af192505050801561230c57506040513d601f19601f820116820180604052508101906123099190613dfd565b60015b61238e573d806000811461233c576040519150601f19603f3d011682016040523d82523d6000602084013e612341565b606091505b506000815103612386576040517f08c379a000000000000000000000000000000000000000000000000000000000815260040161237d90613d27565b60405180910390fd5b805181602001fd5b63150b7a0260e01b7bffffffffffffffffffffffffffffffffffffffffffffffffffffffff1916817bffffffffffffffffffffffffffffffffffffffffffffffffffffffff1916149150506123e3565b600190505b949350505050565b6060600060016123fa846124dc565b01905060008167ffffffffffffffff811115612419576124186129b3565b5b6040519080825280601f01601f19166020018201604052801561244b5781602001600182028036833780820191505090505b509050600082602001820190505b6001156124ae578080600190039150507f3031323334353637383961626364656600000000000000000000000000000000600a86061a8153600a85816124a2576124a1613e2a565b5b04945060008503612459575b819350505050919050565b6000808273ffffffffffffffffffffffffffffffffffffffff163b119050919050565b600080600090507a184f03e93ff9f4daa797ed6e38ed64bf6a1f010000000000000000831061253a577a184f03e93ff9f4daa797ed6e38ed64bf6a1f01000000000000000083816125305761252f613e2a565b5b0492506040810190505b6d04ee2d6d415b85acef81000000008310612577576d04ee2d6d415b85acef8100000000838161256d5761256c613e2a565b5b0492506020810190505b662386f26fc1000083106125a657662386f26fc10000838161259c5761259b613e2a565b5b0492506010810190505b6305f5e10083106125cf576305f5e10083816125c5576125c4613e2a565b5b0492506008810190505b61271083106125f45761271083816125ea576125e9613e2a565b5b0492506004810190505b60648310612617576064838161260d5761260c613e2a565b5b0492506002810190505b600a8310612626576001810190505b80915050919050565b6040518060a001604052806060815260200160008152602001600073ffffffffffffffffffffffffffffffffffffffff168152602001600063ffffffff168152602001600063ffffffff1681525090565b6000604051905090565b600080fd5b600080fd5b60007fffffffff0000000000000000000000000000000000000000000000000000000082169050919050565b6126c981612694565b81146126d457600080fd5b50565b6000813590506126e6816126c0565b92915050565b6000602082840312156127025761270161268a565b5b6000612710848285016126d7565b91505092915050565b60008115159050919050565b61272e81612719565b82525050565b60006020820190506127496000830184612725565b92915050565b600081519050919050565b600082825260208201905092915050565b60005b8381101561278957808201518184015260208101905061276e565b60008484015250505050565b6000601f19601f8301169050919050565b60006127b18261274f565b6127bb818561275a565b93506127cb81856020860161276b565b6127d481612795565b840191505092915050565b600060208201905081810360008301526127f981846127a6565b905092915050565b6000819050919050565b61281481612801565b811461281f57600080fd5b50565b6000813590506128318161280b565b92915050565b60006020828403121561284d5761284c61268a565b5b600061285b84828501612822565b91505092915050565b600073ffffffffffffffffffffffffffffffffffffffff82169050919050565b600061288f82612864565b9050919050565b61289f81612884565b82525050565b60006020820190506128ba6000830184612896565b92915050565b6128c981612884565b81146128d457600080fd5b50565b6000813590506128e6816128c0565b92915050565b600080604083850312156129035761290261268a565b5b6000612911858286016128d7565b925050602061292285828601612822565b9150509250929050565b61293581612801565b82525050565b6000602082019050612950600083018461292c565b92915050565b60008060006060848603121561296f5761296e61268a565b5b600061297d868287016128d7565b935050602061298e868287016128d7565b925050604061299f86828701612822565b9150509250925092565b600080fd5b600080fd5b7f4e487b7100000000000000000000000000000000000000000000000000000000600052604160045260246000fd5b6129eb82612795565b810181811067ffffffffffffffff82111715612a0a57612a096129b3565b5b80604052505050565b6000612a1d612680565b9050612a2982826129e2565b919050565b600067ffffffffffffffff821115612a4957612a486129b3565b5b612a5282612795565b9050602081019050919050565b82818337600083830152505050565b6000612a81612a7c84612a2e565b612a13565b905082815260208101848484011115612a9d57612a9c6129ae565b5b612aa8848285612a5f565b509392505050565b600082601f830112612ac557612ac46129a9565b5b8135612ad5848260208601612a6e565b91505092915050565b60008060408385031215612af557612af461268a565b5b6000612b0385828601612822565b925050602083013567ffffffffffffffff811115612b2457612b2361268f565b5b612b3085828601612ab0565b9150509250929050565b600063ffffffff82169050919050565b612b5381612b3a565b8114612b5e57600080fd5b50565b600081359050612b7081612b4a565b92915050565b60008060008060808587031215612b9057612b8f61268a565b5b600085013567ffffffffffffffff811115612bae57612bad61268f565b5b612bba87828801612ab0565b9450506020612bcb87828801612822565b9350506040612bdc87828801612b61565b9250506060612bed87828801612b61565b91505092959194509250565b600060208284031215612c0f57612c0e61268a565b5b6000612c1d848285016128d7565b91505092915050565b612c2f81612b3a565b82525050565b600060a0820190508181036000830152612c4f81886127a6565b9050612c5e602083018761292c565b612c6b6040830186612896565b612c786060830185612c26565b612c856080830184612c26565b9695505050505050565b612c9881612719565b8114612ca357600080fd5b50565b600081359050612cb581612c8f565b92915050565b60008060408385031215612cd257612cd161268a565b5b6000612ce0858286016128d7565b9250506020612cf185828601612ca6565b9150509250929050565b600081519050919050565b600082825260208201905092915050565b6000819050602082019050919050565b612d3081612801565b82525050565b6000612d428383612d27565b60208301905092915050565b6000602082019050919050565b6000612d6682612cfb565b612d708185612d06565b9350612d7b83612d17565b8060005b83811015612dac578151612d938882612d36565b9750612d9e83612d4e565b925050600181019050612d7f565b5085935050505092915050565b60006020820190508181036000830152612dd38184612d5b565b905092915050565b600067ffffffffffffffff821115612df657612df56129b3565b5b612dff82612795565b9050602081019050919050565b6000612e1f612e1a84612ddb565b612a13565b905082815260208101848484011115612e3b57612e3a6129ae565b5b612e46848285612a5f565b509392505050565b600082601f830112612e6357612e626129a9565b5b8135612e73848260208601612e0c565b91505092915050565b60008060008060808587031215612e9657612e9561268a565b5b6000612ea4878288016128d7565b9450506020612eb5878288016128d7565b9350506040612ec687828801612822565b925050606085013567ffffffffffffffff811115612ee757612ee661268f565b5b612ef387828801612e4e565b91505092959194509250565b600082825260208201905092915050565b6000612f1b8261274f565b612f258185612eff565b9350612f3581856020860161276b565b612f3e81612795565b840191505092915050565b612f5281612884565b82525050565b612f6181612b3a565b82525050565b600060a0830160008301518482036000860152612f848282612f10565b9150506020830151612f996020860182612d27565b506040830151612fac6040860182612f49565b506060830151612fbf6060860182612f58565b506080830151612fd26080860182612f58565b508091505092915050565b60006020820190508181036000830152612ff78184612f67565b905092915050565b600081519050919050565b600082825260208201905092915050565b6000819050602082019050919050565b600060a08301600083015184820360008601526130488282612f10565b915050602083015161305d6020860182612d27565b5060408301516130706040860182612f49565b5060608301516130836060860182612f58565b5060808301516130966080860182612f58565b508091505092915050565b60006130ad838361302b565b905092915050565b6000602082019050919050565b60006130cd82612fff565b6130d7818561300a565b9350836020820285016130e98561301b565b8060005b85811015613125578484038952815161310685826130a1565b9450613111836130b5565b925060208a019950506001810190506130ed565b50829750879550505050505092915050565b6000602082019050818103600083015261315181846130c2565b905092915050565b600080604083850312156131705761316f61268a565b5b600061317e858286016128d7565b925050602061318f858286016128d7565b9150509250929050565b7f4e487b7100000000000000000000000000000000000000000000000000000000600052602260045260246000fd5b600060028204905060018216806131e057607f821691505b6020821081036131f3576131f2613199565b5b50919050565b7f4552433732313a20617070726f76616c20746f2063757272656e74206f776e6560008201527f7200000000000000000000000000000000000000000000000000000000000000602082015250565b600061325560218361275a565b9150613260826131f9565b604082019050919050565b6000602082019050818103600083015261328481613248565b9050919050565b7f4552433732313a20617070726f76652063616c6c6572206973206e6f7420746f60008201527f6b656e206f776e6572206f7220617070726f76656420666f7220616c6c000000602082015250565b60006132e7603d8361275a565b91506132f28261328b565b604082019050919050565b60006020820190508181036000830152613316816132da565b9050919050565b7f455243203732313a205472616e73666572206973206e6f74206f776e6572206f60008201527f7220617070726f76656400000000000000000000000000000000000000000000602082015250565b6000613379602a8361275a565b91506133848261331d565b604082019050919050565b600060208201905081810360008301526133a88161336c565b9050919050565b7f4e487b7100000000000000000000000000000000000000000000000000000000600052601160045260246000fd5b60006133e982612801565b91506133f483612801565b925082820390508181111561340c5761340b6133af565b5b92915050565b7f4e487b7100000000000000000000000000000000000000000000000000000000600052603260045260246000fd5b7f4d6178696d756d206d696e69746e672063617061636974792072656163686564600082015250565b600061347760208361275a565b915061348282613441565b602082019050919050565b600060208201905081810360008301526134a68161346a565b9050919050565b60006134b882612801565b91506134c383612801565b92508282019050808211156134db576134da6133af565b5b92915050565b60008190508160005260206000209050919050565b60006020601f8301049050919050565b600082821b905092915050565b6000600883026135437fffffffffffffffffffffffffffffffffffffffffffffffffffffffffffffffff82613506565b61354d8683613506565b95508019841693508086168417925050509392505050565b6000819050919050565b600061358a61358561358084612801565b613565565b612801565b9050919050565b6000819050919050565b6135a48361356f565b6135b86135b082613591565b848454613513565b825550505050565b600090565b6135cd6135c0565b6135d881848461359b565b505050565b5b818110156135fc576135f16000826135c5565b6001810190506135de565b5050565b601f82111561364157613612816134e1565b61361b846134f6565b8101602085101561362a578190505b61363e613636856134f6565b8301826135dd565b50505b505050565b600082821c905092915050565b600061366460001984600802613646565b1980831691505092915050565b600061367d8383613653565b9150826002028217905092915050565b6136968261274f565b67ffffffffffffffff8111156136af576136ae6129b3565b5b6136b982546131c8565b6136c4828285613600565b600060209050601f8311600181146136f757600084156136e5578287015190505b6136ef8582613671565b865550613757565b601f198416613705866134e1565b60005b8281101561372d57848901518255600182019150602085019450602081019050613708565b8683101561374a5784890151613746601f891682613653565b8355505b6001600288020188555050505b505050505050565b7f4552433732313a20696e76616c696420746f6b656e2049440000000000000000600082015250565b600061379560188361275a565b91506137a08261375f565b602082019050919050565b600060208201905081810360008301526137c481613788565b9050919050565b7f4552433732313a2061646472657373207a65726f206973206e6f74206120766160008201527f6c6964206f776e65720000000000000000000000000000000000000000000000602082015250565b600061382760298361275a565b9150613832826137cb565b604082019050919050565b600060208201905081810360008301526138568161381a565b9050919050565b600081905092915050565b60006138738261274f565b61387d818561385d565b935061388d81856020860161276b565b80840191505092915050565b60006138a58285613868565b91506138b18284613868565b91508190509392505050565b7f4f776e61626c653a206e6577206f776e657220697320746865207a65726f206160008201527f6464726573730000000000000000000000000000000000000000000000000000602082015250565b600061391960268361275a565b9150613924826138bd565b604082019050919050565b600060208201905081810360008301526139488161390c565b9050919050565b7f4552433732313a206d696e7420746f20746865207a65726f2061646472657373600082015250565b600061398560208361275a565b91506139908261394f565b602082019050919050565b600060208201905081810360008301526139b481613978565b9050919050565b7f4552433732313a20746f6b656e20616c7265616479206d696e74656400000000600082015250565b60006139f1601c8361275a565b91506139fc826139bb565b602082019050919050565b60006020820190508181036000830152613a20816139e4565b9050919050565b7f4552433732313a207472616e736665722066726f6d20696e636f72726563742060008201527f6f776e6572000000000000000000000000000000000000000000000000000000602082015250565b6000613a8360258361275a565b9150613a8e82613a27565b604082019050919050565b60006020820190508181036000830152613ab281613a76565b9050919050565b7f4552433732313a207472616e7366657220746f20746865207a65726f2061646460008201527f7265737300000000000000000000000000000000000000000000000000000000602082015250565b6000613b1560248361275a565b9150613b2082613ab9565b604082019050919050565b60006020820190508181036000830152613b4481613b08565b9050919050565b7f45524337323155524953746f726167653a2055524920736574206f66206e6f6e60008201527f6578697374656e7420746f6b656e000000000000000000000000000000000000602082015250565b6000613ba7602e8361275a565b9150613bb282613b4b565b604082019050919050565b60006020820190508181036000830152613bd681613b9a565b9050919050565b7f4f776e61626c653a2063616c6c6572206973206e6f7420746865206f776e6572600082015250565b6000613c1360208361275a565b9150613c1e82613bdd565b602082019050919050565b60006020820190508181036000830152613c4281613c06565b9050919050565b7f4552433732313a20617070726f766520746f2063616c6c657200000000000000600082015250565b6000613c7f60198361275a565b9150613c8a82613c49565b602082019050919050565b60006020820190508181036000830152613cae81613c72565b9050919050565b7f4552433732313a207472616e7366657220746f206e6f6e20455243373231526560008201527f63656976657220696d706c656d656e7465720000000000000000000000000000602082015250565b6000613d1160328361275a565b9150613d1c82613cb5565b604082019050919050565b60006020820190508181036000830152613d4081613d04565b9050919050565b600081519050919050565b600082825260208201905092915050565b6000613d6e82613d47565b613d788185613d52565b9350613d8881856020860161276b565b613d9181612795565b840191505092915050565b6000608082019050613db16000830187612896565b613dbe6020830186612896565b613dcb604083018561292c565b8181036060830152613ddd8184613d63565b905095945050505050565b600081519050613df7816126c0565b92915050565b600060208284031215613e1357613e1261268a565b5b6000613e2184828501613de8565b91505092915050565b7f4e487b7100000000000000000000000000000000000000000000000000000000600052601260045260246000fdfea2646970667358221220f144800de4783e2a6cc917e5401b0074a9baf37fc566c1958c3c37e32349698b64736f6c63430008110033",
  "immutableReferences": {},
  "source": "// SPDX-License-Identifier: MIT\npragma solidity ^0.8.0;\n\nimport \"@openzeppelin/contracts/token/ERC721/ERC721.sol\";\nimport \"@openzeppelin/contracts/utils/Counters.sol\";\nimport \"@openzeppelin/contracts/access/Ownable.sol\";\nimport \"@openzeppelin/contracts/token/ERC721/extensions/ERC721URIStorage.sol\";\n\ncontract Warranty is ERC721URIStorage,Ownable{\n    using Counters for Counters.Counter;\n    uint256 [] public nftTokenList;\n    Counters.Counter private _tokenIds;\n    // uint256 cost= 1 ether;\n    uint256 maxSupply=1000;\n    uint256 totalSupply=0;\n    struct Product {\n        string name;\n        uint256 productId;\n        address owner;\n        uint32 productCost;\n        uint32 mfgTimeStamp;\n    }\n    Product[] public products;\n    constructor()ERC721 (\"Token\",\"TOKEN\"){}\n    function mint ()public returns(uint256){\n        _tokenIds.increment();\n        uint256 newItemId=_tokenIds.current();\n        _mint(msg.sender, newItemId);\n        nftTokenList.push(newItemId);\n        return newItemId;\n    }\n    function getTokens()public view returns (uint256[] memory){\n        return nftTokenList;\n}\n    \n    function assignTokenToProduct(uint256 _id)public {\n        uint256 supply=totalSupply;\n        require(supply<=maxSupply, \"Maximum minitng capacity reached\");\n        products[_id-1].owner=msg.sender;\n        totalSupply+=1;\n        _safeMint(msg.sender, _id);\n    }\n    function transferFrom(address from, address to, uint256 tokenId) public override {\n        require(_isApprovedOrOwner(_msgSender(), tokenId),\"ERC 721: Transfer is not owner or approved\");\n        products[tokenId-1].owner=to;\n        _transfer(from, to, tokenId);\n    }\n\n    function safeTransferFrom(address from, address to, uint256 tokenId,bytes memory _data) public override {\n        require(_isApprovedOrOwner(_msgSender(), tokenId),\"ERC 721: Transfer is not owner or approved\");\n        products[tokenId-1].owner=to;\n        _safeTransfer(from, to, tokenId,_data);\n\n    }\n    function getProducts()public view returns (Product[] memory){\n        return products; \n}\n    function getProduct(uint256 _id)public view returns (Product memory){\n        return products[_id-1];\n}\n\n    function addData(uint256 tokenId, string memory tokenURI)public returns (uint256){\n        _setTokenURI(tokenId, tokenURI);\n        return tokenId;\n}\n\n    function addProduct(string memory name, uint256 productId, uint32 productCost, uint32 mfgTimeStamp) public {\n        products.push(Product(name,productId,msg.sender,productCost, mfgTimeStamp));\n}\n}\n",
  "sourcePath": "/Users/ritesh/Desktop/waranty/warranty/src/contracts/Warranty.sol",
  "compiler": {
    "name": "solc",
    "version": "0.8.17+commit.8df45f5f.Emscripten.clang"
  },
  "schemaVersion": "3.4.10",
  "updatedAt": "2022-12-15T08:34:58.497Z",
  "networkType": "ethereum",
  "devdoc": {
    "kind": "dev",
    "methods": {
      "approve(address,uint256)": {
        "details": "See {IERC721-approve}."
      },
      "balanceOf(address)": {
        "details": "See {IERC721-balanceOf}."
      },
      "getApproved(uint256)": {
        "details": "See {IERC721-getApproved}."
      },
      "isApprovedForAll(address,address)": {
        "details": "See {IERC721-isApprovedForAll}."
      },
      "name()": {
        "details": "See {IERC721Metadata-name}."
      },
      "owner()": {
        "details": "Returns the address of the current owner."
      },
      "ownerOf(uint256)": {
        "details": "See {IERC721-ownerOf}."
      },
      "renounceOwnership()": {
        "details": "Leaves the contract without owner. It will not be possible to call `onlyOwner` functions anymore. Can only be called by the current owner. NOTE: Renouncing ownership will leave the contract without an owner, thereby removing any functionality that is only available to the owner."
      },
      "safeTransferFrom(address,address,uint256)": {
        "details": "See {IERC721-safeTransferFrom}."
      },
      "setApprovalForAll(address,bool)": {
        "details": "See {IERC721-setApprovalForAll}."
      },
      "supportsInterface(bytes4)": {
        "details": "See {IERC165-supportsInterface}."
      },
      "symbol()": {
        "details": "See {IERC721Metadata-symbol}."
      },
      "tokenURI(uint256)": {
        "details": "See {IERC721Metadata-tokenURI}."
      },
      "transferFrom(address,address,uint256)": {
        "details": "See {IERC721-transferFrom}."
      },
      "transferOwnership(address)": {
        "details": "Transfers ownership of the contract to a new account (`newOwner`). Can only be called by the current owner."
      }
    },
    "version": 1
  },
  "userdoc": {
    "kind": "user",
    "methods": {},
    "version": 1
  }
}